:020000040800F2
:10000000B01F0020F96F0008B16D0008B36D000843
:10001000B56D0008B76D0008B96D0008000000005C
:10002000000000000000000000000000BB6D0008A0
:10003000BD6D000800000000BF6D0008C16D000824
:100040001170000815700008197000081D70000874
:100050002170000825700008297000082D70000824
:1000600031700008C56D0008CB6D000835700008C0
:10007000397000083D7000084170000845700008A4
:10008000497000084D700008517000085570000854
:10009000597000085D700008617000086570000804
:1000A00069700008D16D00086D700008717000085B
:1000B00075700008797000087D7000088170000874
:1000C00085700008897000088D7000089170000824
:1000D00095700008D76D000899700008DD6D000864
:1000E0009D700008A1700008A5700008A9700008A4
:1000F000AD700008B1700008B5700008B970000854
:10010000BD700008C1700008C5700008C970000803
:10011000CD700008D1700008E36D0008F56D00088F
:10012000FB6D0008D5700008D9700008DD7000086C
:10013000E1700008E5700008E9700008ED70000843
:10014000F1700008F5700008F9700008FD700008F3
:100150000171000805710008097100080D7100089F
:100160001171000815710008197100081D7100084F
:100170002171000825710008000000000000000047
:10018000297100082D7100083171000835710008CF
:10019000397100083D71000800000000417100083D
:1001A00045710008497100080000000000000000CF
:1001B0004D710008000000000000000051710008AF
:1001C00055710008597100085D71000861710008DF
:1001D00065710008697100082DE9F14FB2B09A46C7
:1001E000914600230691CDE900333C9A0F930DF11F
:1001F0004A0114914A7011E0329E4F462C4617F87E
:10020000011B0698B0470028069000F026810F9841
:10021000401C641E0F90F2D13296A94499F8000058
:10022000252808D10021002209910A920B910C92F5
:100230000D910E920FE06A464FF0FF31484601F0F3
:100240001BF8050002D10F9800F00CBED4D5012593
:10025000E3E741F0010119F8010F2028F9D0232824
:100260000CD02B2804D02D2805D0302809D00BE045
:1002700041F00201EFE741F00401ECE741F0080131
:10028000E9E741F01001E6E72A280FD1DAF800206B
:1002900052F8040BCAF800200028119003D5404200
:1002A000119041F0040109F1010914E01192DFF805
:1002B000503B0AE01198984205DA00EB800402EB0B
:1002C0004402303A119209F1010999F80020A2F193
:1002D00030000A28EED399F800002E2803D04FF002
:1002E000FF32109229E019F8010F2A2809D1DAF813
:1002F000000050F8042BCAF80000109209F101091F
:100300001BE02D280CBF09F10109002000221092EA
:10031000DFF8EC2A0BE040B9109B934205DA03EBBF
:10032000830504EB4504303C109409F1010999F868
:100330000040A4F130030A2BEDD3ADF848100FF6BE
:10034000C42099F8001000F0A1FF08B119F8010BC2
:100350008DF84A009DF84A00682805D199F80000F8
:1003600068280CD1622106E06C2804BF99F80000CF
:100370006C2804D171218DF84A1009F101091FA8D8
:10038000089019F801BBBBF125012DD01C3900F0F4
:100390006281091F022940F25E810E392AD0491F6D
:1003A00000F06584093900F05681891E00F0FB8455
:1003B000491E00F0A784491E022940F24C81091F02
:1003C00000F0A084491F00F0BB80491E00F04F845C
:1003D000491E65D0C91E21D0891E00F04884C91E5F
:1003E00000F0458400F0FEBC25238DF87C3001210F
:1003F00009912AE06C208DF84A00DAF8000050F8E4
:10040000042BCAF80000002A43D114994878002828
:100410003DD04FF0FF340FF6F41012E09DF84A0083
:100420006C28EAD0DAF8000050F8044BCAF8000053
:100430000794D4B91499487898B14FF0FF340FF667
:10044000E81000F02FFF201A07D132981FAA04A944
:1004500000F00BFD00287FF5E1AE4FF0FF3000F01B
:1004600001BD0FF6E0100790EFE7109D002D04D5B9
:10047000204600F037FF044607E02A46204600F0F9
:100480004DFF002814BF041B2C460A94DDE70FF62D
:10049000B812329804A900F06EFD0028D5D5DCE72B
:1004A000DAF8001051F8040BCAF8001020F000042C
:1004B000002121F0FF351FABCDE904450793DDE9AD
:1004C000042308993C2413B90AB91098A0B102F08A
:1004D0000F05641E30353A2D08DA12090D5542EA2F
:1004E00003721B0908BF002A02D105E02735F4E793
:1004F00007980D19A842EAD308190790C4F13C02E5
:1005000010980A92824209DABDF84810821A4FF612
:10051000EF7001400C92ADF8481096E7002894D592
:100520009DF8480000F0140010288ED1119B099905
:100530000C985B1A1B1A9A1A002A86DD0C9284E723
:100540001499487820B14FF0FF340FF6001078E787
:100550009DF84A00622862D0682819D06A2840D0E5
:100560006C2806D071284DD074282DD07A281ED042
:1005700064E0DAF8001051F8040BCAF8001020B952
:100580004FF0FF340FF640405BE70F9901605CE7E6
:10059000DAF8001051F8040BCAF8001020B94FF037
:1005A000FF340FF624404CE70F9901804DE7DAF84D
:1005B000001051F8040BCAF800100028E5D14FF0E4
:1005C000FF340FF604403CE7DAF8001051F8040B52
:1005D000CAF800100028D8D14FF0FF340FF6E830E9
:1005E0002FE7DAF8001051F8040BCAF8001020B910
:1005F0004FF0FF340FF6D03023E70F9AD317C0E93E
:10060000002322E7DAF8001051F8040BCAF80010B2
:100610000028F2D14FF0FF340FF6AC3011E7DAF8D2
:10062000001051F8040BCAF8001020B94FF0FF3445
:100630000FF6943005E70F99017006E7DAF800101D
:1006400051F8040BCAF8001000289ED14FF0FF3477
:100650000FF67430F5E6DAF80020D21D22F007021A
:10066000CAF80020D2E900010832CAF80020CDE91A
:100670000401C80F02D009982D210AE0BDF84800F6
:10068000810702D509982B2103E0C00705D50998F9
:1006900020211FAA1154401C09901FA80999DDE9C7
:1006A000044543184BF020006128079315AE0BD08A
:1006B0001098002802D50620109005E001BF4BF0ED
:1006C0002000672801211091DDE904014800401550
:1006D000401C0A4611D109030FD0ABF1610703207A
:1006E0001A2F0A9002D20FF6F82101E00FF6F4213A
:1006F0000322184600F03EFEA7E650B9120308D1C7
:10070000ABF1610703201A2F0A9018D30FF6DC21F2
:10071000EEE7DDE9040102AA00F038FECDE90401AC
:100720004BF02000612811D1079830210170821C04
:100730000792BBF1610F0CBF7821582102E00FF640
:10074000A821D5E741700998801C0990DDE90401D2
:1007500020F0000231F0004308BF002A02D100253A
:10076000002446E14BF02008B8F1610F40F095807D
:100770001098002847BF21210391401C0390039F3C
:100780007F1C2046294600220023DDE9044500F0B5
:1007900035FE38BF85F0004502998DF85420091FB9
:1007A000002F02910DF1550034DD06462046294602
:1007B0000022002300F03CFE2BD21C2200F052FE4F
:1007C00004460D4600F0ECFEFF1F002F804609DDB9
:1007D00000F002FF02460B462046294600F0CCFFFF
:1007E00004460D46F01D0721B8F1000F0CDD491E2F
:1007F0005EBF08F00F0200F8012D4FEA2818F3D56C
:1008000002E0002200F8012D491EFAD5C61D002F76
:10081000CCDC30460DF15501401A03990DF1550617
:1008200005468842C8BF0D46002D2FD4854206DA02
:100830000DF15500415D0829A8BF0F2000DA002006
:10084000294615AA0A4400E06D1E12F80139491E16
:100850008342F9D00F2804D10DF15500425C521C9F
:100860004254002904D50298001D15AE6D1C02905B
:10087000681E0BD431180A783032D3B23A2BA4BF99
:100880005A443A3A401E01F80129F4D5109800283C
:1008900040F1AE80691E1091AAE00299DFF8E828C5
:1008A00047F29750414391FBF2F2029225F0004546
:1008B000C2F10702002A04DD2046294600F041FC6F
:1008C0000BE052420020DFF8C41800F03AFC024668
:1008D0000B462046294600F0C1FF04460D46B8F1FC
:1008E000660F06BF029F0A37062710983F18142F7D
:1008F000C8BF142730208DF854000020DFF890186E
:10090000CDE92E010DF15506002F33DD2046294695
:1009100001F0C8F801460A4606F1080304200A2639
:10092000B2FBF6F606EB860EA2EB4E02303203F86F
:10093000012C0A22B6FBF2F202EB820EA6EB4E0667
:100940003036401E03F8026DE9D1083F002F03F155
:100950000806D9DD084601F0B7F802460B462046E6
:10096000294600F009FFDDE92E2301F0BBF804461B
:100970000D46CBE70DF15500301A0DF1550604E098
:100980000299491E401E0291761C31783029F7D019
:10099000B8F1660F02D10299491C04E0B8F1650F65
:1009A0000CBF01210021109D4D19A842B8BF451E62
:1009B000002D1DD4854204DA705D3428C8BF39206B
:1009C00000DC30202946721E531800E06D1E13F81B
:1009D0000149491E8442F9D0392802D1705C401C7B
:1009E0007054002904D50298401C16466D1C0290D4
:1009F000029C00F045FC406A0778DDF8408028B290
:100A0000002802DC01250FF2E8764BF02000662872
:100A100008BF641C16D0672846D120B210F1040F1D
:100A200048DB404546DA9DF84800641C010703D4C2
:100A300028B24045D8BF804620B2B8EB000848BF76
:100A40004FF000080FFA84FB07980A99BBF1000FDA
:100A500000F3B3804A1C0A9230234354B8F1000FCC
:100A600003DC9DF84800010704D50A98411C0A914F
:100A700007990F5418EB0B0FB8BFC8F1000424B24C
:100A80006042A0442AB20D909045B8BF4546079BEE
:100A90000A982DB20B952A463146184400F06AFC9C
:100AA000A8EB05000E90CCE0BBF1610F17D14FF021
:100AB000700B19E028B2404504DA9DF848100A0787
:100AC00058BF8046B8F1010848BF4FF00008BBF19D
:100AD000670F14BF4FF0450B4FF0650B04E0BBF1FF
:100AE000410F08BF4FF0500B0A98411C0A91B8F112
:100AF000000F079916F8012B0A5403DC9DF84800F3
:100B000001071AD50A98411C0A91B8F1000F0799FC
:100B10000F5412DD6D1E28B28045B8BF45460798B8
:100B20000A9B2AB23146184400F024FC0A992DB2DF
:100B300069180A91A8EB05000D9007980A990844D6
:100B400021B2002980F800B003D42B224270821C0D
:100B500004E02D2242700C46821C644200212EAB20
:100B600020460AE004460A2094FBF0F000EB8005E2
:100B7000A4EB450403F8014B491C00B20028F1DC4A
:100B8000012906DC4BF02000652804BF302002F864
:100B9000010B00292EAB08D1302002F8010B06E032
:100BA000491E585C303002F8010B0029F8DC079927
:100BB0000A980844121A0B9243E0084429B222B260
:100BC000914219DA2AB2314600F0D4FB0A992DB2CB
:100BD00069180A91ABEB0500B8F1000F0D9003DC2A
:100BE0009DF84800020704D5079847540B99491C03
:100BF0000B91CDF8388024E0314600F0BBFB0A9819
:100C00002D1B5844B8F1000F0A9003DC9DF84810E2
:100C10000A0703D5411C0A9107990F5428B2804551
:100C2000B8BF454607980A9B2AB206EB0B01184449
:100C300000F0A0FB0A982DB228180A90A8EB050036
:100C40000D909DF8480000F0140010287FF4FDABD3
:100C5000099A0A990D988A180B9982180E988A1881
:100C6000821811988242BFF6F0AB821A66E49DF8B2
:100C70004A00622808D068280ED06A2814D06C2850
:100C80001FD0712810D01CE0DAF8001051F8040BC6
:100C9000CAF80010C0B21AE0DAF8001051F8040BDC
:100CA000CAF8001080B212E0DAF80020D21D22F05B
:100CB0000702CAF80020D2E900010832CAF8002071
:100CC00006E0DAF8001051F8040BCAF80010002111
:100CD000CDE904019DF8480001075AD5DDE9042358
:100CE000002B08BF002A54D04BF02000782850D1A8
:100CF00009981FA930220A54401C431C099301F88B
:100D000000B046E09DF84A00622808D068280ED05E
:100D10006A2814D06C281FD0712810D01CE0DAF893
:100D2000001051F8040BCAF8001040B21AE0DAF8CB
:100D3000001051F8040BCAF8001000B212E0DAF803
:100D40000020D21D22F00702CAF80020D2E90001DB
:100D50000832CAF8002006E0DAF8001051F8040B57
:100D6000CAF80010C117CDE90401002902D509987D
:100D70002D210AE0BDF84800810702D509982B21F2
:100D800003E0C00705D5099820211FAA1154401C73
:100D900009901FA809990144079104A8594600F039
:100DA0004AF9FFF752BB9DF84A006C280BD001218D
:100DB0000991DAF8000050F8041BCAF800008DF819
:100DC0007C10FFF742BBDAF8000050F8041BCAF8A9
:100DD000000002914FF0FF3210920021039102AA0D
:100DE000FFF757BB25210122BBF1000F8DF87C10C6
:100DF00009923FF42AAB8DF87DB00221FFF7F8BAD3
:100E0000CBCCCC0C686A6C747A4C00007072696E42
:100E100074665F733A2062616420256C732061728E
:100E200067756D656E7400007072696E74665F73CD
:100E30003A2062616420257320617267756D656E6A
:100E40007400000000000000000000007072696E75
:100E500074665F733A20256E20646973616C6C6FF1
:100E60007765640033B0BDE8F08F2DE9FC410F4693
:100E7000064690467A6B7869396ABC6A121AB86974
:100E8000521A796A121AF869521A121A97F8380027
:100E9000141B41070FD42020002C8DF800000ADD20
:100EA000254601236A463946304600F075F9002888
:100EB0005DD16D1EF5D17B6942463946304600F062
:100EC0006BF9002853D130208DF800003D6A002DC9
:100ED00009DD01236A463946304600F05DF90028F5
:100EE00045D16D1EF5D1BB69FA683946304600F030
:100EF00053F900283BD130208DF800007D6A002D89
:100F000008DD01236A463946304600F045F970BBDA
:100F10006D1EF6D1F868B969FB694218394630464A
:100F200000F03AF918BB30208DF80000BD6A002DA2
:100F300008DD01236A463946304600F02DF9B0B984
:100F40006D1EF6D197F8380041070DD52020002CF2
:100F50008DF8000008DD01236A463946304600F06E
:100F60001BF920B9641EF6D10020BDE8F6814FF0D0
:100F7000FF30BDE8F6812DE9F8470D46A3B02F6B91
:100F800082469046002F48BF6FF0004700F07FFE7A
:100F9000696B401801AA0021C2E90011812828BF0D
:100FA0004FF0FF3044D289461EE0A74230DB68692B
:100FB000201881280BD30021696303AA29465046D3
:100FC000FFF753FF5FEA000922D40020686103ABFA
:100FD0006E6922466946981900F0CCF9A6196E612F
:100FE00058F8040BA0B13F1B002F11DDD8F80010FA
:100FF00001AA684600F042F90446002C05D4D8F84E
:1010000000000028D1D1641ECFD54FF0FF390EE08B
:10101000B9F1000F504604D103AA2946FFF725FF76
:101020008146B9F1000F02D100206861686348462B
:1010300024B0BDE8F0872DE9FC4304466F292569FB
:1010400008BF082605D041F02000782814BF0A26E2
:101050001026D4E900233C2790469946642918BFFE
:10106000692905D1002B03D5D8F1000869EB49099E
:10107000B9F1000F08BFB8F1000F0CD1206B50B9C7
:10108000082E3AD194F83800010736D530203B2796
:1010900085F83B0031E08DF8001040464946324665
:1010A000F31700F0F9FD3032D0B27F1E3A280197D5
:1010B0000EDAEA55404649463246F31700F0ECFD99
:1010C00080465FEA010908BFB8F1000F05D108E0CA
:1010D0009DF800001218513AEBE7E068E9198842E0
:1010E000DBD3082E09D194F83800010705D5E85D57
:1010F000302802D07F1E3020E855C7F13C02A261A3
:10110000E919E160206B824208DA821A22624FF606
:10111000EF70218F01402187BDE8F38300280ED5B1
:1011200094F8380000F01400102808D1636B61694E
:10113000206A5B1A1B1A9A1A002AC8BF2262BDE8ED
:10114000F3832DE9D04306460F4614464FF00008BE
:10115000DFF8409012E0E00707D542464B463046A4
:10116000394600F0BFFC06460F4640464946424617
:101170004B4600F0B7FC641080468946002CEAD14B
:1011800030463946BDE8D083A08601000000F03F1C
:1011900084D7974100002440F8B505460E4617460F
:1011A0001C4600205CB117F8011BB068A847B0606E
:1011B00030B1F06A401CF0620020641EF3D1F2BD31
:1011C0004FF0FF30F2BD00007072696E74663A2015
:1011D00062616420256E20617267756D656E7400B2
:1011E0006E616E004E414E00696E6600494E4600CB
:1011F0003000B1F5807F02D34FF0FF3070470170AF
:10120000012070470078401E8041C043C00F7047E6
:101210001C48704770B45368D41801E05B1C491E29
:10122000042B08DA00291FBF057804F8015B10F8C9
:10123000016B002EF2D1536070BC704738B5144674
:101240001D4661B1FFF7E6FF61686A6B2046904773
:101250006FF00102811A02D0491E01D001E003E0C3
:1012600005E00021616032BD6FF0010032BD4FF03A
:10127000FF3032BDDA6B1047024BDFE7014BF9E775
:10128000014870479005002058050020C9B2027837
:101290008A421AB11CBF10F8012FF9E718BF0020CD
:1012A00070472E0080B500B906A005490B681BB138
:1012B00022220021984701E000F071FD222002BDAA
:1012C000A01B0020636F6E73747261696E74206876
:1012D000616E646C65723A20626164206D6573733F
:1012E0006167650000F10103810704D010F8011B5C
:1012F000820781B1FAD10268A2F10131914311F064
:10130000803104BF50F8042FF6E709BAB1FA81F131
:1013100000EBD100401CC01A70474300C9B28307DC
:1013200006D0521E22D310F8013B9942F7D11FE09C
:10133000083A13D302F1040241EA012141EA0141D2
:1013400050F8043B121F21BF4B40A3F1013C2CEA93
:10135000030C1CF0803FF3D0C9B2001F083210F814
:10136000013B521E28BF91EA030FF8D818BF012095
:10137000401E70474AB1000011F8013B521E00F8B0
:10138000013B1CBF11F8013BF8E7704710B514464C
:1013900000F002F8226010BDC1F30A5343B14A00C5
:1013A00012F5001F28D2A3F2FE32A1EB02517047C2
:1013B00050EA410C20D001F0004C31EA0C01B1FAA6
:1013C00081F204BFB0FA80F3D2180B3AB2F12003D5
:1013D0002CBF00FA03F1914041EA0C013EBFC2F17B
:1013E000200C20FA0CF319439040524240F2FD3396
:1013F000D21A01EB035170470022704741EA030CF7
:1014000050EA4C0C52EA0C0C4FF4001C09D307D0E4
:101410001CEB410F9CBF1CEB430F8B4208BF824269
:1014200070471CEB430FFBD8994208BF90427047AE
:1014300041EA030C50EA4C0C52EA0C0C4FF4001C2D
:1014400009D307D01CEB410F9CBF1CEB430F994203
:1014500008BF904270471CEB410FFBD88B4208BF7E
:1014600082427047124254D440F2FF7C1CEA11536E
:101470000FD0634531D09B1863453CBF01EB02514F
:10148000704701F0004141EA0C510020AFF30080A9
:10149000704750EA410320D001F0004C91EA0C0162
:1014A0001CD0B1FA81F30B3B9A420DD9D21A994064
:1014B00051EA0C01C3F1200C20FA0CFC6144984065
:1014C000531C40F2FF7CD7E7914041EA0C01C2F186
:1014D000200C20FA0CF3194390407047B0FA80F3C7
:1014E0001533202BE0D3202AEED3203A203B9A421A
:1014F00009D9D21A00FA03F141EA0C010020531C69
:1015000040F2FF7CB8E700FA02F141EA0C0100204A
:101510007047524240F2FF7C1CEA11530DD06345E4
:10152000DBD0B2EB030C3CBFA1EB025170470CF1D6
:10153000010221EA035141F4801150EA410CCCD060
:1015400001F0004C352A27DC30B481EA0C01B2F1FD
:10155000200309DAC2F12003044601FA03F5D04062
:101560002843D1409C400CE0C3F12002450020FA02
:1015700003F418BF44F0010421FA03F091400C4336
:10158000002174F1004550F1000051EB0C012442A0
:1015900030BC7FF47BAF70476146002076E70000E7
:1015A000C1F30A5340F21E42D31A0CDDCA0283F380
:1015B000070342EA505242F00042DA4002EBE17285
:1015C00082EAE17070476FEAE17203F2E13008B13C
:1015D00082F000407047000010F0004160B148BF49
:1015E0004042B0FA80F29040D21CC2F5846241EAD7
:1015F000025202EBD02140057047000070B491EA1E
:10160000030F4FF0004540F1BF806B40841A71EB2F
:10161000030604D26E40001BB141121973414FF40E
:10162000001C1CEB410F34BF7CEB430683E00C0D28
:10163000A4EB1356362E00F37C80012E45EAC3231B
:1016400041DC43EA525312BFD20292025B082405E6
:1016500045EAC12141EA5051D2EBC020994125D43D
:1016600007D1B0FA80F610FA06F162D000202036D9
:1016700008E0B1FA81F6B140C6F1200220FA02F288
:101680001143B0404FEAF474B4EB465434F0010611
:101690004FEA74040AD8D6F50016760D04F000441B
:1016A000F04061FA06F25040F1404840C00A40EA7A
:1016B000415021F0004128BF5FEA500550F1000081
:1016C00044EBD12135E0DB0A45EAC121C90AB6F174
:1016D00020050EDD42EA0242120CC5F1200603FA93
:1016E00006F6EB4042EA06056D42984161F10001C1
:1016F0000DE062FA06F5F240554063FA06FC82EA14
:101700000C02F3405A406D42904161EB030111F429
:10171000801F05D1641E620502D06D004041494121
:1017200021F48011430875F1004350F1000041EBB2
:10173000045170BC70471CEB410F15D223F00043DD
:1017400052EA43060BD04FEA4C0CBCEB410F04D8D5
:101750000C0D661E342EB7DDEBE7801A994150EA76
:10176000410608BF0021E4E708BF1CEB430F28BF78
:101770006FF00001DDE7000070B491EA030F4FF055
:1017800000457FF543AF6B40841A71EB030603D22B
:10179000001BB141121973414FF4001C1CEB410FA7
:1017A00034BF7CEB430442E00C0DA4EB1356352E02
:1017B0004FDC45EAC323DB0A45EAC121C912B6F171
:1017C00020050DDD63FA05F6EB4086EA03051242BB
:1017D00018BF45F00105C01851F100010CD213E00B
:1017E00062FA06F5F2405540F3415A40B340F340E7
:1017F0005A408018594107D349085FEA30005FEA30
:10180000350528BF45F0010501F58011420875F145
:10181000004250F1000041EB04514E0016F5001F4C
:1018200070BC38BF70470020090D090570471CEBDC
:10183000410F10D252EA43060BD0BCEB410F05D842
:101840000C0DAB43661E342EB6DD02E0AB438018B0
:10185000594170BC704770BC70470000F0B540F251
:10186000FF7581EA030C0CF0004C15EA11541DBF02
:1018700015EA1357AC42AF42E5E0BC41C1F3130196
:10188000C3F31303801A994143F4801304D2641EF6
:101890000018494180185941C90241EA5051B1FB31
:1018A000F3F603FB1611A2FB0675D7EBC020A94186
:1018B00002D2761E80185941C90241EA5051B1FB4B
:1018C000F3FE03FB1E11A2FB0E75D7EBC020A9414E
:1018D00003D2AEF1010E80185941890241EA9051BC
:1018E000760546EA8E2EB1FBF3F603FB1611A2FB3A
:1018F0000675D7EB8020A94102D2761E8018594187
:10190000C90241EA50514EEA060EB1FBF3F603FB61
:101910001611A2FB0675D7EBC020A94102D2761E94
:1019200080185941C90241EA5051B1FBF3F703FB5A
:101930001711A2FB0735D3EBC020A94167F10007BF
:101940000CBF004247F0010766F3D5274FEA1E316E
:10195000B80814F5806412DDBD0775F1004250EB44
:101960000E5051EB045111F5801F5CBF41EA0C0190
:10197000F0BD4CF07F6141F0E0410020F0BDBD07BB
:101980006D0840EA0E5041F48011D4F10104B4F125
:1019900020060ADAC4F120060200E04001FA06F34C
:1019A000E1401843B24015430EE0342C13DCC6F17D
:1019B000200445EA40056D0820FA06F2154321FA95
:1019C00006F0A1400D43002175F1004250F10000E6
:1019D00051EB0C01F0BD00205FEA0C01F0BDCFB966
:1019E00092185B41B3FA83F704BFB2FA82F6BF19CB
:1019F0000B3FB7F120062FBF02FA06F3BB40C7F139
:101A0000200622FA06F638BF3343BA401CB1E41967
:101A1000641E33E77F4231F00041B1FA81F404BF24
:101A2000B0FA80F6A4190B3CB4F120062FBF00FADF
:101A300006F1A140C4F1200620FA06F638BF314372
:101A4000A0403C1B1AE7AC421ABF05EA1357AF424D
:101A500012E050EA41061CBF52EA4306BFE750EAD3
:101A60004107304661461CBF41EA0551F0BD52EACC
:101A7000430C08BFC143F0BD00204FF4001616EB25
:101A8000410F98BF16EB430F08BF16EB410F24BF61
:101A9000C14305E016EB430F0CBF61464CEA05510C
:101AA000F0BD0000400D40F21E4C40EAC120BCEBEE
:101AB000115C40F0004003D48CF30701C84070472C
:101AC0006FEAE1707047000050B1B0FA80F18840D1
:101AD000C91CC1F58461090501EBD021400570479F
:101AE0000146704730B540F2FF7C1CEA11541DBF1F
:101AF0001CEA1355644565453FE0641981EA030C0F
:101B00006FF35F530CF0004C43F48013C90241F0B3
:101B1000004141EA505EC5021100A5FB0202002807
:101B20004FF00000EEFB01204FF00001E3FB052128
:101B300018BF42F00102401800214941E3FB0E01A9
:101B4000A4F580640D0302D292184041494154F13A
:101B5000010470DD450872F1004250F1000051EBC4
:101B60000451A1F5801102D441EA0C0130BD40F2CC
:101B7000FF7E4CEA0E51002030BD0CEA135564453F
:101B800018BF654581EA030C0CF0004C41D050EAC7
:101B9000410E1CBF52EA430E02E06146002030BDF8
:101BA00024422C441BD15FEA050EF6D0090302BF84
:101BB00001460020AEF1140EB1FA81F5AEEB05043A
:101BC00001FA05FE0C35C5F1200100FA05F5C84003
:101BD0004EEA000E6FF35F5343F480139CE733F03B
:101BE0000043B3FA83F504BFB2FA82FE75440B3D9D
:101BF000641BB5F1200E2FBF02FA0EF3AB40C5F106
:101C0000200E22FA0EFE38BF43EA0E03AA40641CDF
:101C10007CE750EA410E14BF52EA430E6FF0000118
:101C20004FF4001515EB430F8EBF194615EB410F0E
:101C30009DE7B4D830BDD4F10104B4F120050FDA2A
:101C4000C4F12005520828BF42F0010210FA05FE37
:101C500001FA05F57244E2BFE0402843E1400FE09D
:101C6000352C9ADCC5F1200452EA400220FA05F234
:101C700018BF42F0010231FA05F0A1400A430021E9
:101C800072F1004250F1000051EB0C0130BD80B503
:101C9000FFF7BEFA006C02BDD3BBD9B1B2F5803FED
:101CA0005BD2022A1ED98C46B1FBF2F102FB11C3B2
:101CB0001B0443EA1043B3FBF2FC02FB1C3380B26B
:101CC00040EA0343B3FBF2F002FB103240EA0C405F
:101CD00000237047022A05D98446B0FBF2F002FBCC
:101CE00010C270474AB105D100F0010249085FEA0D
:101CF0003000704700220023704700F053B80B00FB
:101D00000200002100207047F7D300220023704713
:101D1000904271EB030CF2D370B5B1FA81F4B3FACF
:101D200083F52C1BA340C4F1200532FA05F633439A
:101D3000A2405FF00046E64002E05B085FEA320244
:101D4000841A71EB030524BF204629467641F4D35B
:101D500002000B003000002170BD70B5B1FA81F4B3
:101D6000B2FA82F5C4F120046419B4F12006DAD382
:101D7000B2405FF00044F440002502E052085FEA00
:101D80003303C61A71EB020E24BF3046714664411C
:101D90006D41F3D302000B002000290070BD01202B
:101DA00000F002B87047000080B500F007F8024A62
:101DB00011001820ABBEFBE72600020010B500F0B2
:101DC0003BF8020000230024E4431068A04203D043
:101DD00011000220ABBE13605068A04203D0111D59
:101DE0000220ABBE536010BDF0B583B0040000F01C
:101DF00023F8A10047183D680026F643B54216D1E6
:101E0000AFF300803D68B5420FD100BF09A000903C
:101E1000002C01D1002000E004200190032002905A
:101E200069460120ABBE05003D60AFF3008028008D
:101E300003B0F0BD3A74740000487047D805002024
:101E400038B5040001D1012032BD00F019F808B9FD
:101E500000F01AF800F01DF800F025F8FFE74161E6
:101E600000F001F832BD2068C16841F40051C16042
:101E700000206860202169702020A8700020704731
:101E800004F13C056878704700212970204600F075
:101E9000CCBC242068702068C16821F40051C16066
:101EA000204600F00ABB2068016921F490410161DD
:101EB0002068416921F02A0170472DE9F843054661
:101EC00005F13C060C46707820281746994649D102
:101ED0000CB1380001D1012045E03078012841D013
:101EE00001213170002070602122727000F020FD0D
:101EF000AF848046EF84A868B0F5805F04BF28698E
:101F000000280EBF274620460027002131700446D6
:101F10000EE014F8012B426007E02868002CF8D18D
:101F200037F8021BC1F308014160E88C411EE984C7
:101F30004346E88CCDF80090002807D0002280218D
:101F4000284600F0AEF90028E7D005E00022402145
:101F5000284600F0A6F908B1032004E020207070A4
:101F6000002000E00220BDE8F28310B500F13C0340
:101F70005C78202C18D109B1140001D1012010BDCA
:101F80001C78012C10D001241C7001628284C28450
:101F90000021596021225A7019700068C26842F00D
:101FA0008002C260002010BD022010BD38B500F1D3
:101FB00030039C7B202C0FD109B1140001D10120EA
:101FC00032BD1C7B012C07D001241C7300251D6031
:101FD000BDE8384000F0B0B9022032BD45E800301D
:101FE00000287047216801F1140252E8001F2068A0
:101FF00000F1140321F0400143E80010002870476D
:10200000F8B5044625682A6828460146C6684B6923
:1020100012F00F0F02F0200106F0200007D1002976
:1020200018BF00285DD02046BDE8F240DAE1DF07A6
:1020300002D416F4907F54D0D50705D5F60503D504
:10204000256C45F001052564550705D5DE0703D548
:10205000256C45F002052564950705D5DE0703D5F7
:10206000256C45F004052564120706D508B9DA0782
:1020700003D5236C43F008032364226C002A2FD07D
:1020800000291EBF0028204600F0ACF920684069F6
:10209000216C0A0701D440061DD5204600F075F9D1
:1020A00020684169480611D5FFF79CFFFCD1A06B61
:1020B00060B10FF221310165A06B00F028FD00280E
:1020C0000ED0A06B016DBDE8F44008472046BDE886
:1020D000F24000F037BE204600F034FE00202064BD
:1020E000F1BD206B012804F13D0340F08D80D00646
:1020F00000D5F10640F18880002200922968009105
:10210000226850680090009920684269500641D5C5
:10211000A16B0868406880B20028E1D0A28D90428F
:10212000DEDAE085C869B0F5807F2DD0216801F145
:102130000C0050E8001F226802F10C0521F48071A8
:1021400045E800100028F1D100F09DF8490800F1A1
:102150001405490045E800100028F5D100F093F877
:1021600000F1140521F0400145E800100028F5D1E8
:10217000202058700021216300F08BF800F0C1F896
:10218000FAD1A06B00F087FCA18DE08D091A89B20D
:10219000204635E0A08DE18D411AE08D00281CBF5E
:1021A00088B200286ED02246106800F10C0454E872
:1021B000004F00F10C0624F4907446E8004000281B
:1021C000F2D1106800F1140454E8004F640800F1E3
:1021D0001406640046E800400028F2D12020587020
:1021E00000231363106800F10C0353E8003F00F173
:1021F0000C0523F01003FFF7F1FEF3D189B210466E
:10220000BDE8F44000F09FBD10062BD5310629D55E
:102210001878212836D1A068B0F5805F04BF206906
:10222000002809D1206A01882A46C1F308015160BB
:10223000206A811C216205E0206A411C216222681B
:1022400000785060E08C401EE08480B2D0B92068F5
:10225000C16821F08001C1602068C16841F040017F
:10226000C160F1BD50060DD571060BD52846C16879
:1022700021F04001C160204620211970BDE8F240E4
:1022800000F062BDF1BD206800F1140151E8001FAB
:102290007047206800F10C0151E8001F00F10C03A9
:1022A00070472DE9F041069C05460E4690461F46B4
:1022B000286801683140B1420CBF01200020404530
:1022C0001CD114F1010FF3D024B100F031FBC01B7D
:1022D0008442EDD200F01BF821F4D07100F013F825
:1022E000F8D100F01CF8FCD105F13C002021417030
:1022F0002022827000210170032000E00020BDE850
:10230000F08121F0100143E8001000287047286890
:1023100000F10C0151E8001F00F10C037047286820
:1023200000F1140151E8001F490800F114034900AD
:1023300043E800100028704781628285C28500F161
:102340003C0100224A6022238B700A70016921B18E
:102350000168CA6842F48072CA6001684A6942F042
:1023600001024A610068C16841F02001C16000209B
:10237000704744E8002100297047016801F10C0210
:1023800052E8002F01F10C04704710B5FFF7F5FF7C
:1023900022F49072FFF7EDFFF8D100F00BF8016B1B
:1023A000012901D100F074F8202180F83E100022AC
:1023B000026310BD016801F1140252E8002F5208B7
:1023C00001F11404520044E800210029F2D17047C1
:1023D00000000000806B0021C1850022C28400F053
:1023E000B1BC00001CB590F83E1022294ED1816886
:1023F000826AB1F5805F0AD1016969B903685968D9
:10240000C1F308011180826A911C81620FE00029EA
:1024100004BF0169002902D10368596803E001681B
:10242000496801F07F011170816A4A1C8262C18D86
:10243000491EC18589B239BB0168CA6822F02002F1
:10244000CA600168CA6822F48072CA6001684A6979
:10245000520852004A6100F02AF813D100210163AA
:1024600000F016F802681168CB0607D50024009426
:1024700012680092036859680091009A818D00F0FB
:1024800062FC01E000F05EFE002016BD022016BDD9
:10249000026802F10C0151E8002F036803F10C04FB
:1024A00022F0100244E800210029F1D170472021D8
:1024B00080F83E10026B012A704770B5044622680E
:1024C0001169E06821F4405101431161D3682A4841
:1024D000A168034020690B4361690343E0690B4332
:1024E0000343D3605169A06921F4407101435161F4
:1024F00022498A421CBF2248824205D021498A4291
:102500001CBF2148824202D100F018FF01E000F018
:102510000DFF62682568E4691921B4F5004FA1FB3D
:1025200000016FF0630612D1D30F5200FFF7B4FB26
:1025300000F02CF8F60032366420B6FBF0F04200D2
:1025400002F4F87202EB011200F0070010E0930FA2
:102550009200FFF7A1FB00F019F836013236642033
:10256000B6FBF0F000F0F00202EB011200F00F00F9
:102570008018A86070BD0000F369FFFF00100140E3
:102580000014014000180140001C01406421B0FB10
:10259000F1F106FB0106704781B000200090002297
:1025A000DFF84803416841F480414160416801F42B
:1025B0008041009100990092036843F080530360CA
:1025C000006800F080500090009801B0704738B566
:1025D00086B000F072F82168DFF81403814231D12F
:1025E0000022DFF81003DFF810530092416941F434
:1025F00080714161416901F4807100F048F8CF2198
:1026000000F049F800216960E9604FF48061DFF86B
:10261000EC02286029614FF4805068614FF48041DA
:10262000A9614FF480700022E8614FF40031AA6084
:1026300029626A62284600F081F908B101F034FA93
:10264000A563AC6307B030BD10B586B000F035F8B7
:102650002168DFF8B002814217D10022DFF894022E
:102660000092016941F000510161016901F00051DE
:1026700000F00DF8302100F00EF800220021362085
:1026800001F02EFA362001F048FA06B010BD009194
:10269000009900927047036843F00103036003222E
:1026A000006800F0010000900098954801910292A6
:1026B0000021039101A901F05BBA04461422002114
:1026C00001A801F06DBB10B586B0044614220021AC
:1026D000684601F065FB21688B4A8648914233D1F8
:1026E00000210591026942F48042026100220169E1
:1026F00001F48041059105990592036843F00403B4
:102700000360016801F004010591059905920C210F
:10271000036843F0020300F0D9F800F002000590CE
:1027200005987A4800F031F801F022FA022101916F
:1027300000224FF480600292032100900391052251
:102740000492694672481CE0724A91421BD10021F2
:102750000591426942F4005242610022416901F44C
:1027600000510591059905926421036843F0100317
:1027700000F0ACF800F0100005900598664800F0F5
:1027800004F801F0F5F906B010BD009101920021A6
:10279000029103220521049103926946704780B596
:1027A00000685E4A5149904211D1002000904A6869
:1027B00042F001024A600022486800F001000090E7
:1027C00000210098192001F08BF9192028E0544AC3
:1027D000904211D1002000900A6842F010020A6075
:1027E0000022086800F010000090002100983620B8
:1027F00001F076F9362013E04A4A904214D10020C5
:1028000000900A6842F020020A600022086800F086
:102810002000009000210098372001F061F9372056
:10282000BDE8024001F079B901BD10B586B0FFF7EF
:1028300044FF21683C4A2F48914220D10021009159
:10284000426942F0100242610022416901F0100128
:10285000FFF71DFF4FF4C061036843F0010300F070
:1028600035F800F0010000900098254800F032F89B
:1028700000220021252001F033F9252022E02B4AF7
:10288000914221D100210091026942F4802202612B
:102890000022016901F48021FFF7F9FE4FF4406145
:1028A000036843F0040300F011F800F00400009006
:1028B0000098164800F00EF800220021272001F0B1
:1028C0000FF9272001F029F906B010BD036002229C
:1028D00000687047019102920021039103220721B1
:1028E0000591049201A901F043B90000403802406B
:1028F0000020014030380240141A002010640240C9
:10290000000002400074004000380040000802400F
:102910000004024000340140001002400000014069
:10292000001000400014004000100140004800402A
:1029300001484068704700BF5004002070B504464D
:10294000FFF7F6FF06460CB9012070BD04F134050F
:102950000220687000212970206802685208520025
:10296000026022681068C1070AD5FFF7E1FF801BEB
:102970000628F6D32020286203216970032070BD49
:102980001368DFF8380361680340A0680B43E1680F
:10299000034320690B4361690343A0690B43E16969
:1029A0000343206A0B43616A0343042903D1E16AAC
:1029B000206B0B430343136023685A69606AD20893
:1029C000042840EAC2020AD1A66AE16A324331B160
:1029D000A06988B9002E18BF022E1FD016D35A61E5
:1029E000204600F097F9A96A3F228A4082600020C1
:1029F00028620121697070BDB0F5005F0AD1032E15
:102A0000EDD8DFE806F00D0B0D03E8E7B1F1C07F6C
:102A1000E5D105E0022E03D9F61EE0D1C801DED5CE
:102A2000402129620120687070BDF8B5044604F1A8
:102A3000340600253078776A012801D10220F2BDE2
:102A40000120307096F801C0BCF1010F1FD10220A7
:102A50007070AC46C6F820C0204600F04BF9B06A52
:102A60003F2101FA00FCC7F808C02068016841F066
:102A700016010160F06820B12068016841F008018A
:102A800001602068016841F00101016001E03570DA
:102A900002252846F2BDF8B5044604F134056E6AF5
:102AA000FFF746FF07466878022805D08021296293
:102AB000002028700120F2BD2068016821F0160175
:102AC000016000F004F9E868002804BF6869002884
:102AD00001D000F008F900F000F920680168CA0789
:102AE0000CD5FFF725FFC01B0628F6D3202028624F
:102AF00003216970002028700320F2BDA86A3F21DD
:102B00008140B1600020012169702870F2BD90F809
:102B10003510022903D0802242650120704705212B
:102B200080F83510006802685208520002600020E8
:102B300070472DE9FC41044604F134060020604949
:102B400000904FF41650776A0A683D68B2FBF0F8BF
:102B5000B06A082100F0B7F80ED020680268530769
:102B60000AD5026822F004020260B06A8140B960AE
:102B7000316A41F001013162B06A25FA00F1CA07F9
:102B80000BD521684A69110607D5012202FA00F027
:102B9000B860306A40F002003062042100F092F820
:102BA00008D021680A68930704D5B860306A40F0FD
:102BB00004003062102100F085F81BD021680A68FB
:102BC000130717D5B860206801684A0307D5006865
:102BD00001030BD5716969B1204688470AE0016895
:102BE000CA0503D4016821F008010160F16809B148
:102BF00020468847B06A202100F065F83FD0216860
:102C00000A68D3063BD5B8602068717805291CD1C5
:102C1000026822F01602026000F059F8F0680028FD
:102C200004BF7069002801D000F05DF83F22B06A4F
:102C30008240BA60012171700020F1693070002972
:102C400039D02046BDE8FC41084701684A0307D552
:102C5000006801030FD4316989B1204688470EE02E
:102C60000168CA0507D4016821F010010160012044
:102C7000707000213170B16809B120468847306A10
:102C8000C8B1306AC10710D50520707000F025F872
:102C90000098401C8045009003D320680168CA0753
:102CA000F6D40120707000213170B16919B120464D
:102CB000BDE8FC410847BDE8F38100003F8010E01B
:102CC0005C040020B06A01FA00F0054270472068F9
:102CD000416921F08001416170472068016849081D
:102CE0004900016070472068016821F00801016017
:102CF0007047000030B50468256825F480252560FC
:102D000063608068402802D1A260E16030BDA160AC
:102D1000E26030BD30B501461823086807A400F012
:102D2000FF02103AB2FBF3F2800AA55CCD65800287
:102D3000042A28BF001D886530BD0000000610165B
:102D40000006101670477047704700000168491C64
:102D5000B1F5806F08BF002101607047DFF8701483
:102D6000B1F80024B2F5806FA4BF0023A1F80034AD
:102D7000B1F80024885401F58060E7E710B5DFF86A
:102D80005004B0F80214B1F5806FA4BF0022A0F87F
:102D90000224B0F80214445C00F20240FFF7D6FFB0
:102DA000204610BD0146002200208B5CC018521C3A
:102DB000072AFADBC0B2704710B54A788B7843EA2D
:102DC0000223A0F801300B79CA784C791B0443EA3E
:102DD00002638A7943EA04231343C0F80330CB79B2
:102DE000097A41EA0321A0F8071010BDF8B504469E
:102DF000DFF8E003B4F801300178DFF8DC23DFF816
:102E0000DC6340F22137DB1B47F2581500F09A8053
:102E10005B1E00F09C8041F66E57DB1B00F0858046
:102E20005B1E00F08480A03B24D05B1E30D0DB1EF4
:102E30003CD05B1E3DD05B1E40D09B1E4AD0DB1FAA
:102E40004FD05B1E50D05B1E55D05B1E55D0143B3F
:102E500055D0093B5CD0193B5CD05B1E5FD01B1F7B
:102E600069D043F2D407DB1B7CD041F60777DB1B2C
:102E700049D0F1BD0129D4F8030004D100F09AFF34
:102E80000146012255E000F09AFF0146012250E080
:102E90000129D4F8030004D100F0A6FF0146022264
:102EA00047E000F0ADFF0146022242E000F0BBFF28
:102EB00001E000F0C0FFB4F807204DE0C8480078FA
:102EC00018B1062801DA032232E00022002147F27D
:102ED000541044E0042200F04BF8C249002008706E
:102EE000F1BD92ED010A01E092ED000A01F090FAC5
:102EF000002281B231E005221AE0062218E0D4F85F
:102F000003100A2215E00022642147F2591026E03E
:102F100009220DE00B2200F02BF8002003E00C2228
:102F200000F026F801203070F1BD102200E01122DF
:102F30000021284613E0002200F01AF8BDE8F14015
:102F400000F086BFD4F8030000F0AAFF03E0D4F835
:102F5000030000F0D1FF00220146B4F80100BDE8F3
:102F6000F84044E0012101709F4AA0481060F1BD83
:102F7000002128463BE070B59D4C04F58061054674
:102F80004868F02D08BF002805D1F02001222070EC
:102F90000A604A6070BD012828D108682554401C89
:102FA0000B28086022D10020486004F581660B21BF
:102FB000304601F06FFA0B2221463046FEF7DAF96F
:102FC00021463046FFF7F8FEF42D08D1601CFFF7CC
:102FD000E9FE617A814204BF3046FFF707FF2046D1
:102FE000BDE870404FF4806101F054BA70BD38B54F
:102FF000804CA070F0232370A1710B0C050A080E01
:10300000E0702371080A6071110AE1712272657023
:10301000601CFFF7C7FE6072774D2178F420A07224
:10302000297060786870A178A970E078E8702179DB
:10303000297160796871A179A971E079E871217AC3
:103040002972F421607A6D4C6872A972012001F036
:1030500025FA0B2229462046FEF787FF0028F8D0E4
:1030600031BD38B5664B644C644D08205870002261
:103070004FF40061634800F067FE5E4991F8272233
:103080000B20424388180178217042786270817861
:10309000A170C278E27001792171427962718179FF
:1030A000A171C279E271017A2172427A6272807AE8
:1030B000A072012001F0F2F90B2221462846FEF70A
:1030C00054FF0028F8D031BD38B54A4D05F226240A
:1030D00020786178884214D0FFF7C3FF00200023D6
:1030E00061780B2251436A181354401C0B28F7DBFC
:1030F0006078401C6070C0B23228A8BF63700120A5
:1031000032BD002032BD10B53F4C20780A2803DBC9
:10311000FFF7DAFF0020207010BD3C48018840888E
:10312000814200D1704780B5354A36480821117078
:1031300000224FF4006100F007FEFFF71FFEBDE81C
:10314000024018E770B5064631493068314D884273
:1031500005F227240BD102E06079FFF7FFFD012281
:1031600005F50B712548FEF721FF0028F4D03068E3
:10317000294988422AD107E02278A1780B204243CE
:10318000A818014428784870012229462348FEF7F0
:103190000DFF0028F0D0A0782178401CA0700B20F3
:1031A000414368184278742A1CBF0021A170A1789D
:1031B000405C732804D12178491C00202170A07044
:1031C0002178322902DB00202070A07070BD000041
:1031D0004C0E0020AE1B0020601B00200C020020C3
:1031E00008020020AD1B002014020020C0270900A7
:1031F000380A0020E0160020801B00204813002021
:10320000A81B0020001002401C1B00204C120020B4
:1032100000100140E0050020004800408C13002011
:103220002DE9F04104000F4654D0494E306800F0BB
:103230000700B84202D200F073F84BD12068454D28
:10324000810712D5400703D5A96841F4E051A96070
:103250002078010703D5A86840F46040A860A968F9
:10326000A06821F0F0010143A9602178C80729D5A1
:103270006068012802D129688A0305E0022818BF86
:10328000032803D129688A0103D423E029688A0727
:1032900020D5A968890840EA8100A860FFF748FBAB
:1032A0008046A868616800F00C00B0EB810F09D07F
:1032B000FFF73EFBA0EB080041F289318842F0D3D2
:1032C00003202BE0306800F00700874204D200F0B2
:1032D00027F801D0012021E02078410705D5AA6810
:1032E000E06822F4E0520243AA602178080706D57C
:1032F000A968206921F4604141EAC001A96001F098
:10330000E1F8AA681449154BC2F30312895CC8405E
:1033100018601348006801F005F90020BDE8F0814D
:103320003770316801F00701B94270470B480D4A08
:10333000006813680C49C3F3822206E00748094A73
:10334000006813680849C3F34232895CC84070477B
:10335000003C0240003802407C6F00085C04002002
:10336000580400200838024008700008082800D0DF
:1033700070472DE9F843DFF8B4160868002802BF4B
:10338000DFF8AC160878012802BFDFF8A816087825
:1033900005284CD1DFF8A0460122802100F05AF820
:1033A000DFF89856DFF898962878DFF89876DFF8F7
:1033B0009886DFF8986620BB307D20B90121DFF8C0
:1033C0009026317510800021DFF8880601800122E7
:1033D000402100F03FF8002200F03AF8338A00F074
:1033E00032F8B38800F02AF8DFF86C060178C1F3F0
:1033F000800008B101203870002200F01AF8012086
:1034000014E0012813D10022402100F023F801220A
:1034100000F01EF8738A00F016F8002300F00EF892
:1034200000203870012200F004F800202870BDE868
:10343000F1834FF40071484600F086BC0022102151
:10344000404601F00AB900220021404601F005B9CA
:103450004FF48071204600F077BC2DE9F04786B02C
:1034600001F036F900F095FA1421684601F012F8DF
:103470000020DFF8E845DFF8C855DFF8E465DFF83D
:10348000B885059043F2F837216841F010012160BA
:103490000021206800F0100000F061FA42F0040200
:1034A0002260206800F0040000F059FA42F0800227
:1034B0002260206800F0800000F051FA42F0010222
:1034C0002260206800F0010000F049FA42F0020298
:1034D0002260206800F002000590059805914FF6E3
:1034E0000871226842F0080222600122206800F080
:1034F000080005900598284600F026FC002242F2BC
:103500000101304600F020FC01220221304600F08B
:103510001BFC00223946404600F016FC08210091B1
:10352000012200F02EFA10204FF4041100F01CFAD2
:1035300042F20301009101220021029103910192C4
:103540006946304600F014FB4FF47F410091112290
:1035500000F017FA012001900022029203920097D6
:103560006946404600F004FB4FF4404000900021C3
:10357000019102914046694600F0FAFA40F6377030
:1035800000210090019102916946DFF8D854284645
:1035900000F0EEFA08204FF4441100F0E5F90022A3
:1035A0000021092000F09CFA092000F0B6FA002260
:1035B00000210A2000F094FA0A2000F0AEFA002060
:1035C00000900022216841F48001216000212068E0
:1035D00000F48000009000240098382000F080FA69
:1035E000382000F09AFA684600210022002380E883
:1035F0001E004FF48030DFF87044DFF87014606014
:10360000216001202061207604F13006DFF860049B
:10361000A06201210620E061A26084F82020E2621D
:10362000E26031706161204601F06CF808B100F091
:103630003BFA002001210090019102912046694649
:1036400001F0ACF908B100F02FFA0121009102223B
:1036500000F092F908B100F027FA0221009103224C
:1036600000F08AF908B100F01FFA0321009104224A
:1036700000F082F908B100F017FA06210091052246
:1036800000F07AF908B100F00FFA07210091062244
:1036900000F072F908B100F007FA0021CDE900113D
:1036A000DFF8A453DFF8CC132960284600F05AFF56
:1036B00008B100F0F9F90021009100220192694659
:1036C000284600F0DBFF08B100F0EEF91022694651
:1036D000284600F0D3FF08B100F0E6F9DFF89803C0
:1036E000B0610121002030627062F1620220B0629C
:1036F0000021282070634FF482770A2070644FF411
:103700000079B163F1633164F761C6F8309004F178
:10371000480001F039FA08B100F0C6F90021B1679C
:10372000F16704F1B008D54830670221C8F80010ED
:103730000120C8F804001821C8F80C100020C8F8AF
:103740001000C8F81400C8F818000A21C8F81C10A6
:103750007767C8F8089004F1A00001F015FA08B1E5
:1037600000F0A2F900210022CDE9001204F5E47670
:1037700042F20F70C24970603160B26040F2E737C8
:10378000B261F760304601F05FFD08B100F08CF9DE
:103790000021009101913046694601F063FF08B1B4
:1037A00000F082F900210022CDE900126320776544
:1037B000F0643265326604F50477B249B164384684
:1037C00001F042FD08B100F06FF900210091019174
:1037D0003846694601F046FF08B100F065F9AA488D
:1037E000C8F848004FF49641C8F84C1000200C214E
:1037F000C8F85000C8F85400C8F85800C8F85C1061
:10380000C8F86000C8F8640004F1F8084046FEF704
:1038100017FB08B100F048F904F59E799B48C9F8F8
:1038200000004FF4E1310C200022C9F81400C9F85F
:103830000410C9F80820C9F80C20C9F81020C9F8EC
:103840001820C9F81C204846FEF7FAFA08B100F023
:103850002BF902A80021002200238C4680E80E10DC
:10386000CDE900124720C9F84800C7208849C9F8A7
:103870005000C9F84410C9F84C20C9F85420C9F8C0
:103880005820C9F85C2004F5C07A504601F0DCFCF1
:1038900008B100F009F94FF48050029002A9504697
:1038A00001F0E4FD08B100F0FFF800210091019162
:1038B0005046694601F0D6FE08B100F0F5F8012245
:1038C00074494046FEF772FB012273494846FEF7F1
:1038D0006DFB504601F0C5FC304601F0C2FC384695
:1038E00001F0BFFCD9F84410BF20886200212846AF
:1038F00000F04CFE1021284600F048FE06226749E1
:10390000204600F0C2FF08B100F0CEF801F0F0FE52
:1039100002F028F902F02EF902F0C0FA02F0C4FA1F
:1039200002F06CFA00F07EFD02F07DFA00F066FB1A
:1039300000F0A1FB01F0F6FF02F03AF902F0E1F924
:10394000FFF7EBFBFFF7DFFB02F040F902F05AF85C
:1039500001F0FEFF02F006F902F021F9E6E705901A
:10396000059805912268704700900191002202920B
:103970006946284600F0FCB801926946204601F0ED
:103980000DB800210291039101926946284600F08A
:10399000EFB800B593B0342106A800F07BFD1421E8
:1039A00001A800F077FD002000903D48016841F03B
:1039B000805101600021006800F080500090009864
:1039C000384800910121026842F4404202604FF4FD
:1039D0008032006800F44040009000980691079201
:1039E00002210C914FF4800204210D920E91642269
:1039F00002210F9210911191129106A802F0BEFAC5
:103A000008B172B6FEE7022102910F204FF48051F7
:103A100001900022049103920592032101A8FFF76F
:103A2000FFFB08B172B6FEE713B000BD9C1B00207F
:103A30000C0200200802002000040240AB1B002002
:103A400000100240AC1B00204C1B0020341B002047
:103A5000201B0020221B0020AA1B0020303802401F
:103A600000080240000C02405012002000200140DB
:103A70000100000F00740040003800400034014095
:103A800000100040001400400010014000480040B9
:103A9000000001400C080020E0050020441900202F
:103AA000403802400070004072B6FEE70901020093
:103AB00002D4294881547047284B02F00F021A445F
:103AC00002F8041C7047264B19684FF6FF020002EB
:103AD000114000F4E0600843224908431860704731
:103AE00070B51F4B1C68C4F302230124C3F1070502
:103AF000052D2EBF0F2504FA05F56D1E1E1D072E80
:103B000034BF0023DB1E2940994004FA03F3BDE8CB
:103B100070405B1E1A401143C8E7010007D4012220
:103B200000F01F01104B8A40400943F820207047E5
:103B300010B5401EB0F1807F01D3012010BD0B4CA9
:103B400060600F214FF0FF30FFF7B0FF0021A16050
:103B500007202060002010BD00E400E018ED00E028
:103B60000CED00E00000FA0500E100E010E000E0EC
:103B70002DE9F84F0D4600267E497F4A0F23044663
:103B800001202F68B04000EA0708804540F0D0804F
:103B90004FEA460C032707FA0CF76FEA070E6F6827
:103BA00007F00309B9F1010F1CBF07F00307022F4B
:103BB00012D1A768D5F80C900EEA070709FA0CF99C
:103BC00049EA0707A760676827EA00006F68C7F33C
:103BD0000017B74038436060B0002F7907F0030743
:103BE000032F21D0E768D5F808900EEA070709FAF5
:103BF0000CF949EA0707E7602F7907F00307022F5E
:103C000012D1F70804EB870700F01C09D7F820A0B1
:103C100003FA09FB2AEA0B0AD5F810B00BFA09F9E6
:103C200049EA0A09C7F8209027680EEA070E2F799B
:103C300007F0030707FA0CF747EA0E0CC4F800C0B8
:103C40006F6817F4403F73D04FF0000ECDF800E0DE
:103C50004FEA960C176847F48047176000F00C0095
:103C6000D2F800E0454F0EF4804ECDF800E0DDF8CC
:103C700000E057F82C7003FA00FE27EA0E0E404FC2
:103C8000BC4208BF00271DD03E4FBC4208BF0127E1
:103C900018D03D4FBC4208BF022713D03B4FBC4257
:103CA00008BF03270ED03A4FBC4208BF042709D0F3
:103CB000384FBC4208BF052704D0374FBC420CBF69
:103CC0000627072707FA00F040EA0E00DFF8ACE00D
:103CD0004EF82C006FEA0800D1F808C06F6800EABF
:103CE0000C0CFF0248BF48EA0C0CC1F808C0D1F820
:103CF0000CC06F6800EA0C0CBF0248BF48EA0C0C0D
:103D0000C1F80CC0D1F804C06F6800EA0C0CBF0306
:103D100048BF48EA0C0CC1F804C0D1F800C000EA62
:103D20000C0C6868C00348BF48EA0C0CC1F800C01E
:103D3000761C0F2E7FF624AFBDE8F18F0069084096
:103D400018BF0120C0B2704702B9090481617047F1
:103D5000426901EA0203914341EA034181617047EC
:103D60000E4A136801460B421CBF1160FFF7FEBAF2
:103D700070470000003C01404438024008380140D0
:103D8000000002400004024000080240000C024013
:103D9000001002400014024000180240143C014090
:103DA00010B5044610460A460146204602F07EFA47
:103DB000204610BD10B5A0F12801312903E010B54F
:103DC000A0F128012929834C05D200EE100AB8EE93
:103DD000400A84ED000A01F0CFFC94ED000ABCEE2D
:103DE000C00A10EE100A10BD10B51128794C02D28D
:103DF00008B100F011F801F0BFFC94ED020AEEE703
:103E000010B5011F1129734C01D200F005F801F023
:103E1000B3FC94ED020AE2E700EE100AB8EE400AA5
:103E200084ED020A704780B56B480068FDF74CFED0
:103E30006A4A6B4B06E080B567484068FDF744FE70
:103E4000684A694BFDF70AFDBDE80440FDF72ABE4C
:103E500010B501F04DFC6549654C00200870012249
:103E60004FF4807100F018F801224FF4805100F0F7
:103E700013F801224FF4005100F00EF801224FF424
:103E8000804100F009F801224FF4004100F004F8ED
:103E900058490020086010BD2046FFF755BF0000BC
:103EA00070B50202060E0021120E03041425761EC0
:103EB000514C15FB02F5042E254419D8DFE806F015
:103EC00003050A0F1400A15612E005EB136191F9E6
:103ED00007100DE005EB136191F9931008E005EB75
:103EE000136191F91F1103E005EB136191F9AB1117
:103EF000C9B2084370BD00002DE9F84314223E4FBB
:103F000005462C02240E4FEA054912FB04F202EB8F
:103F1000196607EB02082A0E0020521E042A55D803
:103F2000DFE802F0030E1F314300EAB2214602F03F
:103F300026FA2146002002F043FA3855385745E06A
:103F4000EAB2F1B2012002F01AFAF1B2012002F055
:103F500037FA08EB1961C87108EB196090F907008E
:103F600034E0EAB2F1B2022002F009FAF1B2022022
:103F700002F026FA08EB196181F8930008EB19604A
:103F800090F9930022E0EAB2F1B2032002F0F7F9CF
:103F9000F1B2032002F014FA08EB196181F81F0155
:103FA00008EB196090F91F0110E0EAB2F1B20420A9
:103FB00002F0E5F9F1B2042002F002FA08EB19610F
:103FC00081F8AB0108EB196090F9AB01C0B228434E
:103FD000BDE8F283341B00201C1900202FBAE8A290
:103FE0008BAE44408C2EBAE8A263534018190020CF
:103FF000001002409C1B0020A8140020F0B5DFF840
:10400000442492F811E0936F546F156FD66E976E3B
:10401000D2F864C0BEF1080F0EDAD16B106C8C447C
:10402000C719516C906C8E194519D16C106D0C1913
:10403000C3180EF1010E14E04FEADC00DB085061FA
:10404000FF08F608ED08E40893629761D6611562EF
:10405000546200234FF0000C0027002600250024A6
:104060009E4654671567D66697669367C2F864C024
:1040700082F811E0F0BD80B500F078F900F012F898
:10408000DFF8C403016848F20212914209D101210C
:10409000DFF8B803FFF752FE18B9BDE80140FFF79B
:1040A000D7BE01BD2DE9F84FDFF89C532DED028BF3
:1040B0002868002840F04081DFF894030178C1F3BC
:1040C000C00000281EBFDFF88C432078002800F0D5
:1040D0003381DFF88493DFF86C63022818BF03286C
:1040E00037D1DFF8780301786529C0F22581B06AFD
:1040F00040F69A31884238BF01F0FAFADFF84C7383
:1041000001213846FFF71AFE01280AD148F20210B1
:10411000286001F0EDFA00224FF480714846FFF765
:1041200013FE20213846FFF709FE01280AD147F285
:104130004610286001F0DCFA00224FF48041484626
:10414000FFF702FEF069642838BF47F26811C0F03B
:10415000E9802078052850D1DFF804434FF400416E
:104160002046FFF7EBFD002800F087804FF48041E8
:104170002046FFF7E3FD002862D0DFF8E812DFF801
:10418000E8020C78B0F80080DFF8E072002C9FEDB8
:104190009C8B33D1B8F1330F2FDB7069FDF794FCA2
:1041A00000F0D2F800F0DDF800F0D7F800F0D1F818
:1041B0000BD2307A18B901203072002107E00128B3
:1041C00006D130780A2803DB3AE0002131723170E1
:1041D000B069FDF779FC8246B8688B4602F078F941
:1041E00000F0AEF800F0B9F800F0B3F839D30020D1
:1041F000B072B070B8F1650F4EDA9DE0012CF9D1C4
:10420000DFF86C0201880329F7DDB8F1650FF4DBF4
:104210007069FDF759FC00F097F800F0A2F800F083
:104220009CF800F096F814D2307A20B901200021D1
:104230003072317010E001280ED130780A280BDB83
:1042400047F26211296001F053FA00224FF48051C5
:104250001BE000203072307040F29371B0698842E8
:10426000C5D3B07A20B901200021B072B170C1E786
:104270000128BFD1B0780A28BCDB47F2641129605D
:1042800001F036FA00224FF40051BDEC028B484693
:10429000BDE8F84FFFF758BD012C4DD0386802F04B
:1042A00017F900F05EF89FED588B00F056F80446C1
:1042B00070698946FDF708FC22464B46FDF79EF8DB
:1042C0000ED2707A20B901200021707271700AE05C
:1042D000012808D170780A2805DB47F2611121E036
:1042E000002070727070B86802F0F2F800F028F8E0
:1042F00000F033F80446B0690F46FDF7E5FB2246AF
:104300003B46FDF77BF814D2F07A20B9012000215A
:10431000F072F17010E001280ED1F0780A280BDB62
:1043200047F263112960BDEC028BBDE8F14F01F04B
:10433000DFB90020F072F070BDEC028BBDE8F18FA8
:104340004C4A4D4BFDF7CEBB824638688B4602F097
:10435000BFB852465B46FDF751B853EC182BFDF73A
:10436000C1BB464A464BFDF7BDBB000070B5454C8E
:104370002DED048B207B01283AD14348434D017831
:1043800095ED018AD5ED008A2E4E0B2916DA306A9A
:10439000FDF79AFB00F02FF802F0BEF809EE100AC4
:1043A000706AFDF791FB00F026F802F0B5F800EE18
:1043B000100A79EE288A30EE080A13E0F2EE040AB9
:1043C000B2EE041AC8EEA00A88EE011AC4ED000A83
:1043D00084ED011A002101700120DFED198A9FEDA3
:1043E000180A3074C5ED008A85ED010A002020739B
:1043F000BDEC048B70BD1F4A254BFDF72FBA0000A2
:10440000333333333333F33F9A9999999999E93F89
:10441000F2EE040A20EE200ABDEEC00A10EE100AE9
:1044200080B270471749012008733C220D4846218D
:10443000427081700020144A107070470000000024
:1044400000000000081900209C1B0020000C024006
:10445000AA1B00200802002000100240181B0020A8
:10446000000402400C020020201B0020341B00200E
:10447000221B00208C2EBAE8A26353402FBAE8A278
:104480008BAE4440601B0020171B0020701B0020D7
:10449000A28B3840002202F073B8000038B5044601
:1044A000FEF746FA14F1010F054602D004480178E0
:1044B0006418FEF73DFA401BA042FAD331BD00BF9D
:1044C0005004002030B5144C606800F00C00042843
:1044D00002D0082802D01DE0104830BD22682068B4
:1044E0000023410202F03F0204D525680B49C5F3C1
:1044F000881003E020680A49C0F38810A1FB00017E
:10450000FDF7CAFB2168C1F30141491C4900B0FB1A
:10451000F1F030BD024830BD0438024000127A008C
:104520000024F40038B50D4D0D4B2A7804464FF4A5
:104530007A711868B1FBF2F2B0FBF2F0FFF7F8FA0B
:1045400050B9102C08D2002221464FF0FF30FFF75F
:10455000C7FAAC60002032BD012032BD50040020FB
:104560005C04002010B5040001D1012010BD2079A9
:1045700020B9002161712046FEF766F80220207103
:104580000021216101202071002010BD30B5427949
:10459000012A01D1022030BD0122427102230371A0
:1045A00001F0100203681C68012595402C431C6033
:1045B000036851B9196801F03C013C2912D1194630
:1045C0004A6842F001024A600CE01B683C2103F497
:1045D000701301FA02F2934204D10268516841F06B
:1045E0000201516000F06DF830BD10B5044620683E
:1045F00001688A0411D5416B88040ED5042121710C
:104600004FF40051206940F0010000F020F821F43F
:1046100080510160204601F0CCFF216808688200CB
:1046200014D50846416B880010D5042121714FF044
:104630000051206940F0020000F009F821F080519B
:1046400001602046BDE8104001F0B4BF10BD2061FC
:104650002068416320680168704738B500240094E1
:10466000002905680095009807BF12180832121833
:104670001432009200980360002032BD70B5437977
:10468000012B01D1022070BD01234371022404716A
:1046900002F0100203681C680E68496840F6FE7557
:1046A00095400E43AC43964034431C60C0240168DF
:1046B0000B6804FA02F223EA02020A6000F001F831
:1046C00070BD01210171002242710020704700007D
:1046D00080B50B48016841F400710160026842F442
:1046E00080620260016841F4807101600320FFF77D
:1046F000EAF90F20FFF716FFFDF74EFF002002BD7D
:10470000003C024070B5044600250CB9012070BD84
:1047100004F13006306928B92046FDF758FF002023
:10472000706130733069C10600F192803069DFF842
:10473000B41320F4885040F002003061086820F47F
:10474000403008600A68606802430A602068416877
:1047500021F48071416020684168226941EA0221A8
:1047600041602068416821F04071416021684A68D9
:10477000A06802434A602068816821F4006181607A
:1047800021688A68E06802438A602068A16ADFF8CD
:1047900058239142816821F0706181600CD02168BA
:1047A0008A68A06A02438A6000F05BF821688A6820
:1047B000E06A02438A6001E000F053F820688168F3
:1047C00021F0020100F049F8227E41EA42018160B5
:1047D00094F820002168002848680FD040F4006059
:1047E00048602068416821F4604141602068416868
:1047F000626A521E41EA4231416002E020F40060E8
:1048000048602068C16A21F47001C1622068C16AF1
:10481000E269521E41EA0251C1622068816821F4B6
:10482000007100F01AF8327841EA422100F015F8E0
:1048300021F4806100F011F8626941EA822181600F
:10484000002070610120316960F30101316100E0F5
:10485000012500203073284670BD81602068816882
:1048600070472068816821F040518160704701687D
:1048700041F0804101607047816841F08041816072
:104880007047816811F0405F7047F8B5044600201A
:1048900004F13C0300901D78012D01D10220F2BDEE
:1048A0000120187020688568EE070DD48568924E47
:1048B00045F00105856091480568B5FBF6F606EB05
:1048C0004606009600F006F920688568EE0503D5D7
:1048D000856825F4807585602568A868C6074ED56B
:1048E0005F688448074047F480775F6068684505E3
:1048F00004D55D68012060F30D355D605868C5041E
:1049000046BF986820F006000020986000251D70C2
:10491000A36B0FF2F110D863A36B0FF25120186450
:10492000A36B0FF25120D8646FF022002568286035
:104930002068436843F080634360134620688568BD
:1049400045F4807585600A46206800F14C01A06B33
:10495000FEF76BF8206800F01CF805D1FFF791FF17
:1049600015D1FFF789FF12E06049884202BF604815
:10497000026812F0405F0AD1FFF779FF07E058683C
:1049800040F010005860986840F0010098600020E6
:10499000F2BD54490A6812F01F0F704778B50246FD
:1049A0000020009092F83C30012B01D1022072BD12
:1049B000012082F83C0007240B6810680A2B12D3F0
:1049C0000A3BC56803EB43039C4025EA0404C4602A
:1049D000C3680D688C68A5F10A0606EB4606B4406C
:1049E0002343C3600FE0056903EB430304FA03F3B9
:1049F00025EA0303036103690D688C6805EB45052F
:104A0000AC40234303611F244B68072B0CD25B1E71
:104A1000456B00F059F84463436B4D680C886E1E7B
:104A200000F04DF843631BE00D2B0CD2DB1F056B30
:104A300000F04AF80463036B4D680C88EE1F00F029
:104A40003EF803630CE00D3BC56A00F03DF8C4621C
:104A5000C36A4D680C88A5F10D0600F030F8C362FA
:104A6000224B984226D10C681E48122C07D10368AD
:104A700023F400030360046844F4800404600B68BA
:104A80001F4CA34218BF112B14D1036823F48003D9
:104A90000360056845F4000505600868A04209D177
:104AA0001649154C0B68B3FBF4F40A2044430094F8
:104AB00000F010F8002182F83C10002072BD06EBD7
:104AC0008606B4402343704703EB83039C4025EAEA
:104AD0000404704702E00098401E009000980028EF
:104AE000F9D17047042301400100000F002001406C
:104AF00008200140FEF9FFFF40420F005C04002047
:104B000012000010816B0A6C12F0500F24D1086C57
:104B100040F4007008640A68906810F0405F04BFB9
:104B2000087E002815D1D06A10F4700F02D090686A
:104B300043050ED4506820F020005060086C20F42B
:104B400080700864086CC20403D4086C40F0010053
:104B50000864084601F02FBD0A6CD30644BF08461E
:104B600001F02ABD896BCA6C10470000806B01F010
:104B700024BD0000806B40210164426C42F00402BD
:104B8000426401F019BD000038B5040001D10120D4
:104B900032BD606A30B96068B0F5827F05D000210F
:104BA000E16102E00020206160610020A06204F168
:104BB0005005687820B9002129702046FDF783FD53
:104BC0000220687000F07FFA6068A168E26800F473
:104BD000827001F404410843217C02F40062104316
:104BE000227D01F002010843A16902F00102104395
:104BF000227F01F40071084394F8201002F038027B
:104C00001043A26A01F080010843216802F40052B7
:104C100010430860A06994F824102268000C00F08A
:104C2000040001F01001084350602068C16921F4BC
:104C30000061C161002068600121697032BD2DE909
:104C4000F843054605F15007002638780C46914692
:104C50009846012808BF022000F08F80012038709C
:104C6000FDF766FE7978012918BF02264DD1002C88
:104C700018BFB9F1000F7DD00321797000237B604C
:104C80002C63A5F83490A5F836900021A963AB8772
:104C9000E9876B642964AB68B3F5004F09D12968D3
:104CA0000B6823F040030B6029680C6844F48044CF
:104CB0000C6029680B685C0603D40B6843F0400362
:104CC0000B604446E968B1F5006F696821D100299D
:104CD00018BFB9F1010F00F0EAF9804604E0296B32
:104CE0000A88C26000F0C8F9E88E002833D028682E
:104CF00081688A07F3D4FDF71BFEA0EB0800A042F1
:104D000004D314F1010FEFD0032634E0002CEBD1D3
:104D1000FAE7002918BFB9F1010F00F0BCF980468D
:104D200006E0296B0A780273286B411C00F0A6F993
:104D3000E88E80B1286881688A07F2D4FDF7F8FD13
:104D4000A0EB0800A04203D314F1010FF0D0DBE781
:104D5000002CEDD1D8E742462146284600F041FA22
:104D600008B120207860A86810B900F08CF9009A8A
:104D7000786800B1012600F0A1F8BDE8F2832DE9C2
:104D8000F8430446002660680D469146984604F1B3
:104D90005007B0F5827F04BFA068002809D104261F
:104DA0007E70CDF800804B462A46204600F08CF8F5
:104DB00082E03878012808BF02207DD001203870B9
:104DC000FDF7B6FD7978012918BF022672D1002DB2
:104DD00018BFB9F1000F6CD00421797000227A60FD
:104DE000A563A4F83C90A4F83E9000212163A2861C
:104DF000E18622646164A268B2F5004F09D121689E
:104E00000A6822F040020A6021680B6823F480439C
:104E10000B6021680A68530603D40A6842F0400216
:104E20000A600546E168002926D108E0007BA16BF5
:104E30000870A06B421CA263E08F411EE187E08FE7
:104E400068B320688168CA07F0D4FDF771FD401B84
:104E5000404504D318F1010FF1D003262AE0B8F140
:104E6000000FECD1F9E7C068A16B0880A06B821C31
:104E7000A263E08F411EE187E08F80B120688168E6
:104E8000CA07F0D4FDF754FD401B404503D318F189
:104E9000010FF1D0E1E7B8F1000FEDD1DDE72A46CF
:104EA0004146204600F075F908B120207860786806
:104EB00000B1012600F002F8BDE8F283012078700D
:104EC00000213970304670472DE9FC47054605F151
:104ED00050070C46387891464FF001084FF0000A11
:104EE000012808BF022000F0C5801E4687F8008018
:104EF000FDF71EFD7B78012B0AD06968B1F5827F32
:104F000002BFA9680029042B02D04FF0020AACE0CE
:104F1000002C18BFB9F1000F00D00EB9C246A4E0B2
:104F20007B78042B1CBF4FF0050C87F801C00023D1
:104F30007B60C5F83890EE87AE872C63EE86AE8630
:104F40002B646B6429680C68630603D40C6844F016
:104F500040040C60E9680A9CB1F5006F696838D1BB
:104F6000002918BF012E00F0A2F88146E88E002823
:104F700004BFE88F002868D02968886882070BD5AD
:104F8000E88E002818BFB8F1000F05D0286B028802
:104F9000CA60D04600F070F829688868C2070CD54E
:104FA000E88F50B1C868A96B08804FF00108A86B62
:104FB000821CAA63E88F411EE987FDF7B9FCA0EBCC
:104FC0000900A042D2D314F1010FCFD04FF0030A51
:104FD0004BE0002918BF012E00F05DF88146E88EF5
:104FE000002804BFE88F00282FD02968886882072E
:104FF0000DD5E88E002818BFB8F1000F07D0286B38
:1050000002780A73D046286B411C00F037F82968F3
:105010008868C2070CD5E88F50B1C868A96B0870C2
:105020004FF00108A86B421CAA63E88F411EE98774
:10503000FDF77EFCA0EB0900A04203D314F1010FA1
:10504000CDD0C3E7002CCAD1C0E74A462146284646
:1050500000F0C7F820B120204FF0010A786004E08A
:10506000A86810B900F00FF80098012179700020AD
:1050700038705046BDE8F687286B811C2963E88E9E
:10508000411EE9867047002100912968CA68009294
:1050900089680091704709D1296B2B680A781A73C7
:1050A000296B4A1C2A63E98E4A1EEA86704709D199
:1050B000296B2B680A88DA60296B8A1C2A63E98EBF
:1050C0004A1EEA8670472068016821F040010160AD
:1050D00070472DE9F843089C05460E4690461F464A
:1050E000FDF726FC381A2418FDF722FC81465448A7
:1050F00001684901090D6143009105E0009800B97C
:1051000000240098401E0090286881683140B14218
:105110000CBF01200020404532D017F1010FF3D021
:10512000FDF706FCA0EB0900A04201D2002CE5D15E
:105130002868416821F0E00141606868B0F5827F2D
:1051400008D1A868B0F5004F18BFB0F5806F01D145
:1051500000F019F8A86AB0F5005F09D12868016865
:1051600021F4005101602868026842F40052026094
:1051700005F150000121417000220270032000E07F
:105180000020BDE8F2832868016821F04001016039
:1051900070471CB504460B466068B0F5827F08D1A5
:1051A000A068B0F5004F18BFB0F5806F05D1FFF7CC
:1051B0008AFF6068B0F5827F07D1A0680092B0F5E1
:1051C000806F03D00022802102E0009200220121A2
:1051D0002046FFF77EFF10B100F02BF816BD00202F
:1051E00016BD7CB504461648164E0B4601681825B8
:1051F000B1FBF5F5B5FBF6F64FF47A704643009631
:105200006168B1F5827F09D1009280210022204699
:10521000FFF75FFF58B100F00CF876BD009830B191
:105220000098401E0090216888680106F6D400208E
:1052300076BD606D40F0200060650320704700007F
:105240005C04002040420F0038B5040001D1012069
:1052500032BD00F063F818B900F066F9FDF79FFA67
:105260003AE090F83D10012901D001207047022159
:1052700080F83D100168CA6842F00102CA60016806
:10528000DFF87C20914218BFB1F1804F17D0DFF8D2
:10529000742091421CBFDFF8703099420FD0DFF8C4
:1052A0006C2091421CBFDFF86830994207D0DFF8CC
:1052B000642091421CBFDFF86030994205D18968B3
:1052C00001F00701062905D001680A68084642F086
:1052D000010202600020704702206870211D2068D2
:1052E00000F026F90120A8720121A970E870297147
:1052F0006871A971E871297268726970002032BD05
:10530000000001400004004000080040000C004084
:1053100000040140004001400018004004F13C0539
:105320006878704710B50446206801698A0715D56A
:10533000C1688A0712D56FF002010161012222774C
:10534000806910F0030F204602D001F037F903E026
:1053500001F035F900F087F8002020772068016916
:105360004A0715D5C1684A0712D56FF004010161DB
:1053700002222277806910F4407F204602D001F09B
:105380001DF903E001F01BF900F06DF80020207713
:10539000206801690A0715D5C1680A0712D56FF0A0
:1053A0000801016104222277C06910F0030F204632
:1053B00002D001F003F903E001F001F900F053F825
:1053C0000020207720680169CA0615D5C168CA0681
:1053D00012D56FF01001016108222277C06910F424
:1053E000407F204602D001F0E9F803E001F0E7F841
:1053F00000F039F80020207720680169CA0708D535
:10540000C168CA0705D56FF001010161204601F0AE
:10541000D7F8206801690A0608D5C1680A0605D5CB
:105420006FF080010161204601F046F920680169B2
:105430004A0608D5C1684A0605D56FF040010161EA
:10544000204601F03AF9206801698A060AD5C16848
:105450008A0607D56FF0200101612046BDE81040A3
:1054600001F02CB910BD204601F029B970B50646EF
:1054700006F13C0500242878012801D1022070BDE6
:105480000120287002226A70DFF83C0132689368BC
:10549000034093600868020018BF102830D020280D
:1054A00018BF30282CD0402826D0502819D060288A
:1054B0001BD0702806D0B0F5805F27D0B0F5005F14
:1054C00007D022E000F02BF83068816841F07701C6
:1054D00005E000F024F83068816841F48041816083
:1054E00014E000F018F850210BE0CA6849683068F1
:1054F00000F091F8602104E000F00DF8402100E098
:105500000146306800F099F800E00124012068703D
:1055100000F00AF870BDCA68496830686CE0CB6872
:105520004A688968306890E00021297020467047F9
:10553000F0B50568254C264B264E274FDFF89CC05A
:10554000A04218BFB0F1804F07D0604518BFB842E5
:1055500003D0B04218BF98420DD14A6825F07005BB
:105560001543A04218BFB0F1804F17D060451CBF53
:10557000B842B04212D098421CBF194A90420DD096
:10558000184EB0421CBF184A904207D0174EB04286
:105590001FBF174A9042174EB04203D1CA6825F484
:1055A000407515434A6925F0800515430560A04202
:1055B0008D68C5620A68826212BF984209690163F8
:1055C00001224261F0BD00008800FFFF00000140A1
:1055D00000040140000C00400008004000040040AE
:1055E00000400140004401400048014000180040D4
:1055F000001C00400020004010B5036A046A6408E3
:105600006400046223F00A03846924F0F00444EA8D
:105610000214846123E010B5036A23F010030362CF
:105620008369046A23F4704343EA023324F0A0043C
:10563000836144EA0114046210BD826822F07002A2
:10564000114341F007018160704710B5846824F46C
:105650007F442143114341EA0321816010BD194376
:10566000016210BD70B500F13C031A78012A01D126
:10567000022070BD01221A7002245C7005686E68F9
:10568000AC680A6826F0700616436E60026811481E
:10569000824218BFB2F1804F11D0114882421CBF24
:1056A000104DAA420BD00D4882421CBF0E4DAA429B
:1056B00005D0094882421CBF0C4DAA4204D148685B
:1056C00024F0800404439460012159700020187074
:1056D00070BD00000000014000400140000C00408F
:1056E0000004004000080040000401400018004091
:1056F00010B5DFF8F813DFF8F833DFF8F8430A20C5
:1057000008700022DFF8F013DFF8F0031A600A7067
:105710008021DFF8EC331A70028042808280C280E0
:105720002046DFF8E0331A70FEF70EFB002220213E
:1057300000F064F90022402100F060F900224FF4EB
:10574000807100F05BF9DFF8C043002300220021E4
:105750002046FEF782FF0023002210212046FEF79C
:105760007CFFDFF8A84300F046F901224FF40071F6
:1057700000F044F9BDE810402DE9F84FDFF8904300
:105780002DED028B94ED000AB5EE400AF1EE10FA11
:105790001EBF94ED028AB5EE408AF1EE10FA00F0D9
:1057A000BD80F2EE040AC0EE200AB9EE001A30EE17
:1057B000811AF9EE001ABDEEC11A78EE211A11EE27
:1057C000105AFDEEE11AEDB211EE906AF6B2042D18
:1057D000C8BF04250C2EC8BF0C2610EE100A00F01E
:1057E00077FECC4FCC4ACD4BFCF77CF98B467957F2
:1057F0004FF00A09824611FB09F0FBF7EDFE524615
:105800005B46FBF7FBFEFBF7CBFE8246142010FB4A
:1058100005F0074418EE100A00F05AFEC04AC14BCA
:10582000FCF760F9FBF7BCFEB919BF4A91F9078094
:1058300019FB0808342045435119BB1951F826209B
:1058400093F99300BD1919FB002095F91F2101EB75
:1058500086033E4412FB0985D3F80411A64B96F942
:10586000AB211F780E46032F19FB026609D080B2C8
:10587000FCF72AF94FF03332AC4BFCF733F9FBF766
:105880008FFE514641F2CD0C1FFA8AFAE2452A46B4
:105890003346474605D840F2864C1FFA81F9E14568
:1058A00000D861461FFA88F84FF4FC6CB8F5FC6F1D
:1058B00088BF674605D81FFA87FEBEF1D90F98BF8B
:1058C000D9271FFA80FE40F2B148C645A8BF4FF461
:1058D000966003DABEF1000F08BF0120ADB2B5F546
:1058E000FC6F88BF624601D805B90122B6B240F20A
:1058F000BD25AE42A8BF4FF42F7302DA9DB205B9A1
:105900000123B1EE000AB4EE408AF1EE10FA48BF6E
:105910006427A78163822282E081A180BDEC028B93
:10592000BDE8F18F714801780A2910DB002202706E
:105930007F48006800281FBF7E490A78C2F3C00173
:10594000002904D00022002180B2FDF750BB70472F
:1059500077490868002800D07047F8B5764908787C
:1059600001283DD100F0BEF8624D674E684F062910
:1059700036D8DFE801F0041E272B31353400002330
:105980003B75002200F02DF80022402100F02AF89B
:105990000022802100F026F800F02DF801224FF4BB
:1059A000007100F02BF800F020F8002300221021F5
:1059B00011E000F092F82046BDE8F8404FF4806115
:1059C000FEF7C2B9012200F00CF801E0FFF7D4FEA7
:1059D000FB8900220021BBE000F07AF8F1BDBDE0B8
:1059E000F1BD20212846FEF7AFB900230022002197
:1059F0003046FEF732BE01224FF480612046FEF7AA
:105A0000A3B900004A490868002800D07047F8B5DB
:105A10004949087800285AD100F064F83A4E3C4DC4
:105A2000344F062953D8DFE801F0041C21252B420E
:105A3000510000232B75002200F086F8002240213F
:105A400000F083F80022802100F07FF8FFF7D3FFF9
:105A500001224FF40071FFF7D1FFFFF7C6FF0023CB
:105A600031E000F03AF84FF480611BE0012200F0D1
:105A70006BF801E0FFF780FEEB890022002124E0B3
:105A80000120287500F024F800202C4908802948BE
:105A90000178C1F3800010B11A490120087000227A
:105AA0004FF400712046BDE8F840FEF74DB90122E1
:105AB000802100F04AF80122402100F046F8AB892D
:105AC000FFF794FFAB880022102141E046E0F1BDD2
:105AD0001B488168491C816070471A490020087082
